S00F0000776966695F6D6F642E73333797
S31500000000010000000D900D90005D01000100000050
S3150000001000102000E349F6E80000000000000000A0
S3150000002000000000000000000000000000000000CA
S315000000300000000000000000000000000D900D9080
S31500000040A55A0000002020080000008000000000E3
S31500000050000000000000000000000000000000009A
S31500000060000000000000000000000000000000008A
S31500000070000000000000000000000000000000007A
S31500000080000000000000000000000000000000006A
S31500001000603C01005D48200811482008114820086E
S315000010101148200811482008114820080000000047
S3150000102000000000000000000000000061402008F1
S315000010301148200800000000F14020084D29200832
S315000010401148200811482008114820081148200896
S315000010501148200811482008114820081148200886
S315000010601148200811482008450700005170200843
S31500001070515120081148200811482008114820081D
S315000010801148200811482008114820081148200856
S315000010901148200811482008114820081148200846
S315000010A01148200811482008114820081148200836
S315000010B01148200811482008603C0100114820080A
S315000010C05D4820089D0600001148200811482008A8
S315000010D01148200811482008395120084551200898
S315000010E08D4720081148200811482008AD4FAF69E8
S315000010F011482008114820081148200811482008E6
S3150000110011482008114820081148200811482008D5
S3150000111011482008114820081148200811482008C5
S3150000112011482008114820081148200811482008B5
S3150000113011482008114820081148200811482008A5
S315000011401148200811482008114820081148200895
S315000011501148200811482008114820081148200885
S315000011601148200811482008399D20080000000079
S315000011700000000000000000000000000000000069
S315000011800348044B834202D0034B03B11847704710
S31500001190401B0000401B0000000000000548064BF5
S315000011A01B1AD90F01EBA301491002D0034B03B15F
S315000011B018477047401B0000401B0000000000005D
S315000011C010B5064C237843B9FFF7DAFF044B13B189
S315000011D00448AFF300800123237010BD401B0000BC
S315000011E000000000744A210808B5054B1BB10549EB
S315000011F00548AFF30080BDE80840FFF7CFBF00BF4A
S3150000120000000000441B0000744A21082DE9F04745
S31500001210B0F1004F88B071F10001109D13681746B8
S3150000122008D32D4A012013602C4B01221A6008B006
S31500001230BDE8F0870BB32A4ADFF8B4901368DFF8ED
S31500001240B4A0591C116028460093264A264B40F24A
S31500001250AF410EF023FEC0F595640544073407F14F
S315000012600C064FF000083B68984501D2682C06D85A
S315000012701E4A214628460EF011FE0020D4E716F835
S31500001280022C96F82230CDE9056296F827200492C2
S3150000129096F82620039296F82520029296F82420A6
S315000012A0019296F823200092214628464A460EF0DF
S315000012B0F5FD3B68013B43450544A4EB000406D914
S315000012C02146284652460EF0E9FD0544241A08F147
S315000012D001082E36C7E700BF5C1C0000601C00003A
S315000012E0581C0000B8332108441C00003D34210876
S315000012F0E53321083A34210808B54FF0FF3000F0F5
S315000013002FFCFAE72DE9F04F93B00546382200216D
S3150000131004A80EF019FF31238DF8103001235B4A23
S315000013208DF819300623ADF81C3008934FF00043B2
S31500001330CDE90923564B0B934FF49662554B0D930B
S31500001340002128460EF000FF00231A4604A91020AB
S315000013500DF0A4F8122804463ED108200DF040F9FD
S315000013604D484E4FDFF880810EF090FD00232B7024
S315000013703B60D8F808301B784BB902A902200BF065
S3150000138077FE014600283CD045480EF017FD45493A
S315000013902A4600200CF04EFB0021434A02200BF0A7
S315000013A0E1FF0528014609D100F02CFB00F51C548D
S315000013B010343B68002B52D03C4B1968002956D19B
S315000013C029463B480EF0FAFC10200DF021F90146A3
S315000013D0002850D0374802E030B1014636480EF0BA
S315000013E0EDFC13B0BDE8F08F34480EF04FFD2146FA
S315000013F010200DF001F9014608B13148EFE73148F8
S31500001400AFE7DFF8E8A0DFF8E8B002AE0446D14661
S3150000141016F8012B5946504601340EF073FD062C82
S315000014200AF1020005D028490EF01FFF0AF1030A4F
S31500001430EEE7264C264B274ACDF80090C8212046D9
S315000014400EF02CFD2046C8F808400EF077FF214626
S31500001450A8F80C00204898E700F03EFBA9E700F04A
S31500001460D1FA8442F8D83B68002BA5D107211B4846
S315000014700EF0A4FCA4E710200DF0B2F8014608B166
S315000014801748ACE717480EF001FDAAE710050080E3
S315000014900040502800A1026040342108601C000072
S315000014A0E73421080D222008144221085C1C0000A4
S315000014B0AF352108BF352108763421089E3421082E
S315000014C0BB342108623421080F3521087C1B00003B
S315000014D011352108163521083B3521085C352108D0
S315000014E0DC352108FB35210824000000441C0000DF
S315000014F00A35210810B50D480CF006FC08200DF041
S3150000150087F8044628B1014609480EF057FC2046E4
S3150000151010BD08200DF064F8044610B101460548D8
S31500001520F3E705480EF0B2FCF1E700BF641B0000CC
S31500001530BF352108DC3521081236210810B5074CC5
S31500001540206808B10DF046FE0023054823600EF022
S315000015509DFC044B01221A7010BD00BF601B0000E9
S31500001560243621085C1B000037B505461C460629B3
S315000015701FD8DFE801F00420161E1E1E2800144B9B
S31500001580002219460CF09AFD0528014602D01148A2
S315000015900EF014FC0021284603B0BDE830400CF0E4
S315000015A0D1BB236900936369A268A1890A480EF03A
S315000015B005FC03B030BD09480EF068FC03B0BDE879
S315000015C03040FFF7BBBF117805480EF0F7FBF5E793
S315000015D024000000373621085A362108A53621088E
S315000015E0C4362108F7B50023444E454933701A46E0
S315000015F008200CF053FF044640B1122806D00146DD
S3150000160040480EF0DBFB204603B0F0BD3E480EF02E
S315000016103DFC002108200CF0EFFF044610B1014606
S315000016203A48EEE73A483B4D0EF030FC12200DF0FA
S31500001630C9FD0246286000285DD00346364943F8B6
S31500001640041B3649086889885060998034490B68BC
S31500001650C2F80A304B68C2F80E300B2112234FF441
S3150000166080600DF04FF8044620B1FFF767FF2D4864
S315000016702146C6E72C482D4F0EF008FC28680DF0D1
S31500001680A9FD4FF480632A492A487B810CF02CFB84
S31500001690044630B1014628480EF090FBFFF74EFF96
S315000016A0B1E7264D26480EF0F1FB264829460CF0F8
S315000016B0BBFF044618B124480EF0E8FBEEE704230E
S315000016C02B7429460090214A1A483B460CF092FB9F
S315000016D00528054609D001461D480EF06FFB2C462D
S315000016E0FFF72CFF8FE700F0F7F93378002BFAD0DD
S315000016F0FFF700FF87E7192485E700BF5C1B0000A2
S3150000170020392108E5362108153721083037210808
S3150000171063372108601B0000060008007B3721089C
S31500001720823721088B372108AF372108580000007F
S3150000173069252008641B0000C83721083C0000000A
S31500001740EC372108123821081F3821081000000044
S315000017503E38210810B5027822B90A480EF096FBE9
S31500001760012010BD084CA26812780AB90748F5E7AF
S3150000177020610EF0E3FD6061FFF734FF0023C4E94A
S315000017800433EEE768382108240000007E3821087B
S3150000179010B50B48ADF5966D0EF078FB052468463E
S315000017A0FFF7B0FD6846FFF7D5FF4FF47A7000F0FB
S315000017B0D7F9013CF3D103480EF068FBFFF79CFD17
S315000017C092382108AB382108024A0348002100F06C
S315000017D02DB900BF583921089127200808B500F017
S315000017E0A6F8FFF7F1FF00F0AFF8002008BD08B536
S315000017F002F040F802F0A2FB05F076FF07F0A8FA27
S3150000180001F084FE02F068F9BDE8084000F0ACB8CB
S3150000181000F0D4B87047704770477047EFF31080F8
S3150000182072B6704710B962B6BFF36F8F7047EFF3A9
S3150000183011800C2383F31188704780F31188BFF35E
S315000018406F8F704700230360704703680B60016069
S3150000185070470346006818B102681A6000230360E7
S315000018607047036803B970478B4204D10B68036065
S3150000187000230B6070471846F3E7034638B1002093
S31500001880814204D01A5C02B970470130F8E770470C
S3150000189040B1054A1378012B04D803700133137045
S315000018A00020704701207047641C000008B510F046
S315000018B05BFD002008BD70B5B0B1ABB14C4204F081
S315000018C00304214489B2C0E90033018142811C46E8
S315000018D00025501EA842264607DC002A08BF002025
S315000018E048434FF0FF321A5070BD0C443460013546
S315000018F0F0E738B5044630B1FFF799FF25686B1C51
S3150000190004D1FFF79AFF0025284638BD2B682360CF
S31500001910FFF793FFF8E738B504460D46FFF787FF54
S3150000192023682B602560BDE83840FFF786BF08B501
S31500001930FFF75DFFFFF76EFFFFF76DFFFFF76CFF29
S31500001940BDE80840FFF769BFFFF762BF08B54FF073
S31500001950E0231B6910F00CFD012803D0BDE8084008
S3150000196001F0F8BB08BD0000EFF3058373B9EFF390
S315000019701082094B12B9EFF3118212B11A68022ACA
S3150000198004D0186828B901221A6070476FF0050064
S3150000199070474FF0FF3070475829000008B510F027
S315000019A0E7FC38B1022804D0034B1868431E58429E
S315000019B0584108BD0320FCE75829000010B5EFF395
S315000019C00583ABB9EFF310820C4B12B9EFF311821A
S315000019D012B11A68022A0BD01A68012A0BD1084ADA
S315000019E00024D47702221A6010F09EFC204610BD17
S315000019F06FF00500FBE74FF0FF30F8E758290000CD
S31500001A0000ED00E0EFF305834BB9EFF3108313B954
S31500001A10EFF311832BB1044B1B68022B01D110F09D
S31500001A20BBBC10F079BC00BF58290000F0B587B0E8
S31500001A30144600220B460592EFF3058222BBEFF314
S31500001A40108212B9EFF311821AB1214A1268022AE2
S31500001A501AD0C8B1002C35D0A56925B16A1E372A1F
S31500001A6002D9002011E018256268D207F9D4666908
S31500001A706EB1B208D4E9027C21685FB1BCF1770F80
S31500001A8002D9246904B1B6B9059807B0F0BD4FF480
S31500001A908072EFE7BCF1000FF6D12469002CF3D178
S31500001AA005ACCDE9005492B210F042FC01281CBFEF
S31500001AB000230593E8E7CDE90147009510F044FCC3
S31500001AC00590E1E7214618254FF48072E8E700BF4C
S31500001AD05829000010F03CBCEFF30583ABB9EFF3D7
S31500001AE0108313B9EFF311831BB1094B1B68022B4B
S31500001AF00BD04FF0E0234FF08052C3F8042DBFF314
S31500001B004F8FBFF36F8F002070476FF0050070474F
S31500001B105829000010B50446EFF30583A3B9EFF387
S31500001B20108313B9EFF311831BB10C4B1B68022B07
S31500001B300AD064B1204610F003FC04280AD02046DF
S31500001B4010F00AFC002010BD6FF00500FBE76FF0F7
S31500001B500300F8E76FF00200F5E700BF5829000020
S31500001B6008B5EFF3058373B9EFF3108313B9EFF3F9
S31500001B7011831BB1054B1B68022B04D008B110F072
S31500001B80BFFB002008BD6FF00500FBE758290000E9
S31500001B900346EFF3058292B9EFF3108212B9EFF321
S31500001BA011821AB1084A1268022A08D04BB1D3E949
S31500001BB0020318B11F2B02D900F0A4B90BB1002003
S31500001BC0704700F0C3B900BF5829000013B50C4692
S31500001BD058B3B1F1807F28D2EFF305834BB9EFF309
S31500001BE0108313B9EFF31183CBB1134B1B68022B90
S31500001BF015D1002301AA2146019300F0F1FAB8B1EC
S31500001C00019B4BB14FF0E0234FF08052C3F8042DF7
S31500001C10BFF34F8FBFF36F8F204602B010BD214632
S31500001C2002B0BDE8104000F073BA6FF00304F3E7AA
S31500001C306FF00204F0E700BF5829000070B50E46A9
S31500001C40054618B3B1F1807F20D2EFF305834BB977
S31500001C50EFF3108313B9EFF311838BB10D4B1B68B0
S31500001C60022B0DD1284600F045FA31460446284697
S31500001C7000F038FA002808BF6FF00204204670BD55
S31500001C8031462846BDE8704000F006BA6FF00304FE
S31500001C90F4E700BF5829000073B50C461D4650B343
S31500001CA0B1F1807F27D2EFF305833BBBEFF31083BF
S31500001CB013B9EFF311831BB1124B1B68022B1DD016
S31500001CC002F0010682F00202C2F34002009533469A
S31500001CD0214600F049F904EA00024EB1A24205D0BD
S31500001CE0002D14BF6FF001006FF0020002B070BD4E
S31500001CF0002AF5D0FAE76FF00300F7E76FF005006A
S31500001D00F4E700BF5829000008B5EFF3058373B95F
S31500001D10EFF3108313B9EFF311831BB1074B1B6865
S31500001D20022B04D030B100F039FA002008BD6FF064
S31500001D300500FBE76FF00300F8E700BF5829000035
S31500001D4038B50546EFF3058313B10024204638BDA8
S31500001D50EFF3108313B9EFF311831BB11C4B1B6810
S31500001D60022BF2D02DB36B681A07EED4D5E9021216
S31500001D7003F0010371B14F2AE7D993B1042000F0B3
S31500001D808EFC04460028E0D0296800F0B3FE44F03B
S31500001D900104DBE7002AD8D1ABB1042000F0B3FC84
S31500001DA0EFE7012000F07BFC04460028CDD029682F
S31500001DB006E0012000F0A7FC04460028C5D029460D
S31500001DC000F098FEC2E7012000F09DFCECE700BFA2
S31500001DD058290000034610B520F001000C4603F018
S31500001DE00102EFF30581E9B9EFF3108111B9EFF3C1
S31500001DF0118119B10E490968022913D0012B14D992
S31500001E00214662B100F055FE012801D1002010BD27
S31500001E10002C14BF6FF001006FF00200F7E700F02E
S31500001E208BFDF1E76FF00500F1E76FF00300EEE7D9
S31500001E3058290000024608B520F0010002F001030F
S31500001E40EFF30581C9B9EFF3108111B9EFF31181F1
S31500001E5019B10D49096802290FD0012A10D93BB1E1
S31500001E6000F032FC01280CBF00206FF0020008BD14
S31500001E701A46194600F057FBF4E76FF00500F6E73F
S31500001E806FF00300F3E700BF5829000010B50346C2
S31500001E9020F00104EFF305829AB9EFF3108212B92C
S31500001EA0EFF311821AB10A4A1268022A09D0012BED
S31500001EB00AD9204600F030FE204600F045FE0020FC
S31500001EC010BD6FF00500FBE76FF00300F8E700BFF9
S31500001ED058290000034B0360034B0B604FF48073DB
S31500001EE013607047E0280000E0240000034B036005
S31500001EF0034B0B604FF400731360704768240000B7
S31500001F00681C000013B5044640B94FF0140383F370
S31500001F101188BFF36F8FBFF34F8FFEE72023019326
S31500001F20019B202B08D04FF0140383F31188BFF3D5
S31500001F306F8FBFF34F8FFEE7002340F8043B00F09E
S31500001F4057F901232046237702B010BD38B520206B
S31500001F5001F004FA044628B1002540F8045B00F0BD
S31500001F6047F92577204638BD2DE9F843DDF820905E
S31500001F700C4617469846064640B94FF0140383F3BD
S31500001F801188BFF36F8FBFF34F8FFEE7B1F1807FEC
S31500001F9008D34FF0140383F31188BFF36F8FBFF399
S31500001FA04F8FFEE741B94FF0140383F31188BFF357
S31500001FB06F8FBFF34F8FFEE710F0DAF9D0B9B9F1A2
S31500001FC0000F08D04FF0140383F31188BFF36F8F0F
S31500001FD0BFF34F8FFEE710F087F9356804EA050373
S31500001FE0B8F1000F32D09C4232D18FB325EA0404F7
S31500001FF034602DE010F078F9356804EA0503B8F18D
S31500002000000F2AD1002BF0D1B9F1000F20D0391ED4
S3150000201018BF012109064A462143301D10F06CF90C
S3150000202010F072F928B310F0ABF9830105460AD413
S3150000203001F028F8356804EA0503B8F1000F23D14A
S3150000204023BB01F03FF825F07F4503E0002BCCD100
S3150000205010F05AF92846BDE8F8839C42C5D0B9F17C
S31500002060000FF5D0391E18BF0121090641F0806125
S31500002070D1E74FF0E0234FF08052C3F8042DBFF3B1
S315000020804F8FBFF36F8FCEE79C42DAD1002FD8D0A7
S3150000209025EA04043460D4E770B50C46054640B919
S315000020A04FF0140383F31188BFF36F8FBFF34F8F85
S315000020B0FEE7B1F1807F08D34FF0140383F3118854
S315000020C0BFF36F8FBFF34F8FFEE700F0DBFF2E6885
S315000020D026EA04042C6000F0F5FF304670BDFFF7D9
S315000020E0DBBF00000A4600230146014800F04CBF52
S315000020F0DF302008EFF311834FF0140282F31188CA
S31500002100BFF36F8FBFF34F8F006883F3118870475B
S315000021102DE9F0410D46044640B94FF0140383F310
S315000021201188BFF36F8FBFF34F8FFEE7B1F1807F4A
S3150000213008D34FF0140383F31188BFF36F8FBFF3F7
S315000021404F8FFEE700F10C0610F0CEF823682069E9
S315000021502B43236000258642216807D121EA050129
S31500002160216010F0D1F82068BDE8F081D0E90028A0
S3150000217022F07F4312F0806F03EA010702D11FB9F4
S315000021804046E8E7BB42FBD1D20141F0007148BFAF
S315000021901D4310F0FDF8F3E7FFF7BABF38B5044664
S315000021A010F0A2F804F10C05636843B9237F13B954
S315000021B0204601F06DF9BDE8384010F0A5B8206959
S315000021C0A84208D14FF0140383F31188BFF36F8F31
S315000021D0BFF34F8FFEE74FF0007110F0D9F8E3E739
S315000021E013460A460146014800F0CEBE9931200842
S315000021F000F108034FF0FF32C0E902234360036198
S3150000220000230360704700230361704743684B60F7
S315000022109A688A60516099600368086101330360B7
S31500002220704730B50C68631C0AD103695A684A6066
S3150000223091608B605960036808610133036030BDAB
S3150000224000F10802134652681568A542FAD9EDE76F
S31500002250D0E9011203698A6051605968814208BF5A
S315000022605A60002202611A68013A1A6018687047BB
S3150000227010B5044600F006FFA46B00F023FFB4FA85
S3150000228084F0400910BD70B51646026C856B044695
S3150000229042B906689EB9806810F08AF8A6600135D2
S315000022A0A56370BD6EB940680EF03AF86368226C9B
S315000022B01344A2686360934224BF236863600020CE
S315000022C0EDE7C0680EF02CF8226CE36851429B1AC9
S315000022D02268E36093423EBFA3685B18E360022E68
S315000022E0EDD10DB1013DEAE72846D8E7034610B423
S315000022F01A6C08466AB1DC68996814448C4228BF97
S315000023001968DC6028BFD960D9685DF8044B0EF007
S3150000231007B85DF8044B704770B5044600F0B2FE8E
S3150000232094F8455004F124066DB2002D14DCFF2309
S3150000233084F8453000F0C6FE00F0A4FE94F8445040
S3150000234004F110066DB2002D12DCFF2384F8443030
S31500002350BDE8704000F0B6BE636A002BE7D0304699
S315000023600FF0EAFF08B10FF0C3FF013D6DB2DCE7E5
S315000023702369002BE9D030460FF0DEFF08B10FF0DD
S31500002380B7FF013D6DB2DEE738B50D46044640B9EC
S315000023904FF0140383F31188BFF36F8FBFF34F8F92
S315000023A0FEE700F06FFED4E90F31226862604B430E
S315000023B0D0185B1A1A44A060FF230020A063E260D5
S315000023C084F8443084F84530A5B9236973B104F123
S315000023D010000FF0B1FF48B14FF0E0234FF08052EC
S315000023E0C3F8042DBFF34F8FBFF36F8F00F06AFE63
S315000023F0012038BD04F11000FFF7FAFE04F12400B5
S31500002400FFF7F6FEF2E7F8B5064617460D46C9B1E0
S315000024104843B0FBF1F39E4208D04FF0140383F318
S315000024201188BFF36F8FBFF34F8FFEE710F1510F87
S3150000243019D94FF0140383F31188BFF36F8FBFF3DD
S315000024404F8FFEE7502000F089FF88B180F8465094
S3150000245004462060C4E90F6501212046FFF794FF7A
S3150000246084F84C7005E0503000F078FF044610B94F
S3150000247000242046F8BD002380F846305030E8E7B7
S3150000248037B50D461C4640B94FF0140383F3118847
S31500002490BFF36F8FBFF34F8FFEE743B94FF01403BF
S315000024A083F31188BFF36F8FBFF34F8FFEE74AB1F7
S315000024B091BB4FF0140383F31188BFF36F8FBFF303
S315000024C04F8FFEE741B14FF0140383F31188BFF33A
S315000024D06F8FBFF34F8FFEE750230193019B502B65
S315000024E008D04FF0140383F31188BFF36F8FBFF347
S315000024F04F8FFEE7019B22460121C4E90F0584F8B0
S31500002500461022602046FFF73FFF9DF8183084F8FA
S315000025104C30204603B030BD50230193019B502B15
S31500002520DFD1019BE8E7F0B585B00E4601921D4666
S31500002530044640B94FF0140383F31188BFF36F8F3D
S31500002540BFF34F8FFEE751B9036C43B14FF014034D
S3150000255083F31188BFF36F8FBFF34F8FFEE7022D12
S315000025600BD1E36B012B08D04FF0140383F31188D2
S31500002570BFF36F8FBFF34F8FFEE70FF0F9FE08B979
S31500002580019B03BB00F07EFDA26BE36B9A4223D254
S315000025902A4631462046FFF776FE636A1BB104F1F0
S315000025A024000FF0C9FE48B14FF0E0234FF08052EF
S315000025B0C3F8042DBFF34F8FBFF36F8F00F082FD7A
S315000025C0012005B0F0BD4FF0140383F31188BFF36B
S315000025D06F8FBFF34F8FFEE7022DD9D000231F4622
S315000025E037E013B902A80FF0DBFE00F06BFD0FF029
S315000025F07BFE00F047FD94F84430FF2B08BF84F8BB
S31500002600447094F84530FF2B08BF84F8457000F0FD
S3150000261059FD01A902A80FF083FE002839D100F068
S3150000262031FDA26BE36B9A421AD100F04BFD019982
S3150000263004F110000FF050FE2046FFF76DFE0FF07C
S3150000264063FED8B100F01EFDA36BE26B9A429FD8E1
S315000026500123019A002AC4D100F034FD0020B0E71E
S3150000266000F030FD2046FFF757FE0FF04DFE00F05C
S3150000267009FDA26BE36B9A42EAD289E74FF0E023A9
S315000026804FF08052C3F8042DBFF34F8FBFF36F8F07
S31500002690EDE72046FFF740FE0FF036FEDEE713B506
S315000026A000220B46009011460120FFF7E9FE044682
S315000026B038B1002383600360C3601A461946FFF7EA
S315000026C032FF204602B010BD38B5044640B94FF07F
S315000026D0140383F31188BFF36F8FBFF34F8FFEE7A9
S315000026E085680FF035FE85420BD1E368013BE36058
S315000026F00BB1012038BD1A4619462046FFF713FFD5
S31500002700F7E70020F6E710B5024600210120FFF7A3
S315000027107AFE044638B1002383600360C3601A461C
S315000027201946FFF700FF204610BD2DE9F8438946FC
S3150000273017461E46044640B94FF0140383F311882A
S31500002740BFF36F8FBFF34F8FFEE751B9036C43B1F1
S315000027504FF0140383F31188BFF36F8FBFF34F8FCE
S31500002760FEE7022E0BD1E36B012B08D04FF01403CA
S3150000277083F31188BFF36F8FBFF34F8FFEE700F02F
S3150000278097FDEFF311884FF0140383F31188BFF31D
S315000027906F8FBFF34F8FA26BE36B9A4201D3022E6A
S315000027A029D194F84550A36B6DB23246494620466E
S315000027B0FFF769FD6B1C0ED1636A3BB104F124007F
S315000027C00FF0BAFD10B10FB101233B60012088F371
S315000027D01188BDE8F8837F2D08D14FF0140383F3E9
S315000027E01188BFF36F8FBFF34F8FFEE701356DB2D0
S315000027F084F84550EAE70020E9E7F0B585B00E46D3
S315000028000192044640B94FF0140383F31188BFF3D5
S315000028106F8FBFF34F8FFEE751B9036C43B14FF093
S31500002820140383F31188BFF36F8FBFF34F8FFEE757
S315000028300FF09EFD50B9019B43B14FF0140383F393
S315000028401188BFF36F8FBFF34F8FFEE700F01AFCBE
S31500002850A56BDDB131462046013DFFF747FDA56377
S31500002860236973B104F110000FF066FD48B14FF013
S31500002870E0234FF08052C3F8042DBFF34F8FBFF310
S315000028806F8F00F01FFC012005B0F0BD019B1BB946
S3150000289000F018FC0020F7E702A80FF081FD2F4694
S315000028A000F010FC0FF020FD00F0ECFB94F8443033
S315000028B0FF2B08BF84F8447094F84530FF2B08BFFF
S315000028C084F8457000F0FEFB01A902A80FF028FD70
S315000028D038BB2046FFF7CCFCE8B1019904F124008F
S315000028E00FF0FAFC2046FFF717FD0FF00DFD48B973
S315000028F04FF0E0234FF08052C3F8042DBFF34F8F03
S31500002900BFF36F8F00F0BEFBA56B002DA2D1019B1C
S31500002910002BC5D1BCE72046FFF7FEFC0FF0F4FC08
S31500002920F0E72046FFF7F8FC0FF0EEFC2046FFF735
S315000029309FFC0028E6D0ADE7F0B585B004460191CE
S3150000294040B94FF0140383F31188BFF36F8FBFF3C1
S315000029504F8FFEE7056C45B14FF0140383F31188E2
S31500002960BFF36F8FBFF34F8FFEE70FF001FD0646F3
S3150000297020B32E46002700F085FBA36B53B3013B23
S31500002980A363236813B90FF00FFDA060236973B129
S3150000299004F110000FF0D0FC48B14FF0E0234FF0E7
S315000029A08052C3F8042DBFF34F8FBFF36F8F00F033
S315000029B089FB012005B0F0BD3546DBE7019B002B06
S315000029C0FAD04FF0140383F31188BFF36F8FBFF370
S315000029D04F8FFEE7019B53B9002D66D04FF01403CD
S315000029E083F31188BFF36F8FBFF34F8FFEE716B9DE
S315000029F002A80FF0D5FC00F065FB0FF075FC00F0A7
S31500002A0041FB94F84430FF2B08BF84F8447094F8D7
S31500002A104530FF2B08BF84F8457000F053FB01A931
S31500002A2002A80FF07DFC50BB2046FFF721FC00B347
S31500002A3023683BB900F026FBA0680FF051FC054661
S31500002A4000F040FB019904F124000FF045FC2046FC
S31500002A50FFF762FC0FF058FC48B94FF0E0234FF047
S31500002A608052C3F8042DBFF34F8FBFF36F8F01263B
S31500002A7081E72046FFF750FC0FF046FCF7E72046BB
S31500002A80FFF74AFC0FF040FC2046FFF7F1FB002859
S31500002A90EDD065B100F0F6FA616A19B1236B1968D9
S31500002AA0C1F13801A0680FF06FFC00F00BFB0020AD
S31500002AB080E770B50D46044640B94FF0140383F322
S31500002AC01188BFF36F8FBFF34F8FFEE786680FF055
S31500002AD03FFC864204D1E3680133E360012070BD08
S31500002AE029462046FFF728FF0028F8D0E36801337F
S31500002AF0E360F4E730B5074A002352F8335002EB9F
S31500002B00C3041DB942F83310606030BD0133082B91
S31500002B10F3D1FAE75C29000010B5094A002352F800
S31500002B20331081424FEAC30406D1064A002142F817
S31500002B3033102244516010BD0133082BEFD1FAE760
S31500002B40602900005C29000010B540B94FF014035D
S31500002B5083F31188BFF36F8FBFF34F8FFEE7FFF745
S31500002B60DBFF90F846301BB9BDE8104000F090BC82
S31500002B7010BD70B504460D46164600F083FA94F86B
S31500002B804430FF2B04BF002384F8443094F84530CA
S31500002B90FF2B04BF002384F8453000F093FAA36BA3
S31500002BA02BB93246294604F124000FF0E5FB2046F6
S31500002BB0BDE87040FFF7B0BB914208B541600061C7
S31500002BC00AD8D21A83699A420DD2084B011D186899
S31500002BD0FFF727FB002008BD9A4201D2994202D294
S31500002BE0034B011DF3E70120F5E700BF482F000066
S31500002BF04C2F0000F7B5114C00F044FA2568BDB91A
S31500002C000F4F104E3846FFF7F3FA3046FFF7F0FA4B
S31500002C100D4B0E4A1F600E4B10211E6005200D4BFA
S31500002C200095FFF72DFC206010B10B49FFF762FFFE
S31500002C3003B0BDE8F04000F045BA00BF442F0000E5
S31500002C40642F0000502F00004C2F0000EC2E0000D7
S31500002C50482F00009C2E00008139210810B588B04D
S31500002C60FFF7C8FF124B1B68B3B1002407AA06A9D9
S31500002C7005A8CDE90544FFF739F9059B0293069BA4
S31500002C80019337230093079A0A490B4823460FF00E
S31500002C905BFB0A4B186040B94FF0140383F31188AD
S31500002CA0BFF36F8FBFF34F8FFEE7012008B010BD53
S31500002CB0442F000086392108BD3D2008402F000022
S31500002CC07FB5164604461A4640B94FF0140383F3FF
S31500002CD01188BFF36F8FBFF34F8FFEE70D4D286846
S31500002CE080B10529CDE9001602940DDC0FF040FBFA
S31500002CF00023022808BF089A286818BF1A466946A2
S31500002D00FFF711FC04B070BD00236946FFF70DFD07
S31500002D10F8E700BF442F00002DE9F347DFF898805D
S31500002D2006460FF0F9FAD8F800308342054609D96D
S31500002D301F4F3B681A686AB91E4A116839601360EA
S31500002D40012300E0002328463360C8F8005002B093
S31500002D50BDE8F087DB68DC68D3F8009004F1040A6C
S31500002D605046FFF775FA236A2046984794F82830AC
S31500002D705B07DED5A3694B44994506D23868636084
S31500002D8024615146FFF74DFAD3E7002300934A46E4
S31500002D9019462046FFF794FF0028CAD14FF01403C6
S31500002DA083F31188BFF36F8FBFF34F8FFEE700BF2A
S31500002DB04C2F0000482F00003C2F00002DE9F04367
S31500002DC06E4D6F4E89B02B68D3F80080B8F1000FB6
S31500002DD035D0DB68D3F8008000240FF085FA04A80C
S31500002DE0FFF79AFF049B8146002B69D1002C4CD13A
S31500002DF0404550D30FF088FA2B68DB68DF68381D32
S31500002E00FFF726FA97F8283058071AD5B9694346C6
S31500002E104A4641443846FFF7CFFEB0B100942346F8
S31500002E20424621463846FFF74BFF70B94FF0140370
S31500002E3083F31188BFF36F8FBFF34F8FFEE7012433
S31500002E40CBE723F0010387F828303B6A38469847DA
S31500002E503068002204A9FFF7D0FC0028B3D0049BF9
S31500002E600698002B2FDB069C6369002B32D103A842
S31500002E70FFF752FF049B0246092BE9D8DFE803F06F
S31500002E802E2E2E575E762E2E575E3E4B1B681C68E6
S31500002E90B4FA84F4640930682246A8EB0901FFF706
S31500002EA068FE0FF031FA0028D2D14FF0E0234FF040
S31500002EB08052C3F8042DBFF34F8FBFF36F8FC7E760
S31500002EC00FF022FAC4E7059B07999847049B002B4D
S31500002ED0BEDBC8E7201DFFF7BBF9C8E794F828302A
S31500002EE0A16943F0010384F82830059B2046194464
S31500002EF0FFF762FE0028ABD0236A2046984794F875
S31500002F0028305907A4D5A269059900230A440093DD
S31500002F1019462046FFF7D4FE002899D14FF0140336
S31500002F2083F31188BFF36F8FBFF34F8FFEE794F8DB
S31500002F30283023F0010384F8283089E794F82830F4
S31500002F4043F0010384F828300599A16141B94FF097
S31500002F50140383F31188BFF36F8FBFF34F8FFEE720
S31500002F60034601442046FFF727FE71E794F8283010
S31500002F709A07DED4204600F08BFA69E74C2F000052
S31500002F80442F0000482F00001FB514461A466FF064
S31500002F900103CDE900300548CDE902140023694656
S31500002FA00068FFF7C2FB04B010BD00BF442F00004D
S31500002FB008480068006880F308884FF0000080F336
S31500002FC0148862B661B6BFF34F8FBFF36F8F00DF11
S31500002FD000BF000008ED00E0DFF80C00016841F4D6
S31500002FE0700101607047000088ED00E082B00023A8
S31500002FF001930D4B1B68013308D04FF0140383F384
S315000030001188BFF36F8FBFF34F8FFEE74FF01403A6
S3150000301083F31188BFF36F8FBFF34F8F019B002B94
S31500003020FCD002B0704700BF700000004FF0807304
S3150000303040F8043C074B40F80C3C21F001016FF0CE
S31500003040020340F8081C40F8202C40F8243C443881
S31500003050704700BFED3F20080000000000000000A0
S31500003060074B19680868B0E8F04F80F30988BFF38A
S315000030706F8F4FF0000080F311887047AFF3008028
S31500003080982E00004FF0140383F31188BFF36F8F5F
S31500003090BFF34F8F0A4A13680133012B13600ED119
S315000030A04FF0E023D3F8043DDBB243B14FF01403F5
S315000030B083F31188BFF36F8FBFF34F8FFEE770471F
S315000030C070000000084A136843B94FF0140383F3F5
S315000030D01188BFF36F8FBFF34F8FFEE7013B13607D
S315000030E00BB983F3118870477000000000000000E0
S315000030F0EFF30980BFF36F8F154B1A681EF0100FA0
S3150000310008BF20ED108A20E9F04F10602DE9090074
S315000031104FF0140080F31188BFF34F8FBFF36F8F0A
S315000031200FF0F6F84FF0000080F3118809BC19681B
S315000031300868B0E8F04F1EF0100F08BFB0EC108A18
S3150000314080F30988BFF36F8F704700BFAFF300802D
S31500003150982E000008B54FF0140383F31188BFF3CF
S315000031606F8FBFF34F8F0FF0FBF828B14FF0E023BE
S315000031704FF08052C3F8042D002383F3118808BD55
S315000031804FF0E022002313619361054B4FF47A71EF
S315000031901B68B3FBF1F3013B5361072313617047CF
S315000031A000F800004FF0E02337B5D3F8001D3A4A87
S315000031B0914208D14FF0140383F31188BFF36F8F48
S315000031C0BFF34F8FFEE7D3F8002D344B9A4208D158
S315000031D04FF0140383F31188BFF36F8FBFF34F8F44
S315000031E0FEE72F4B1A78D2B20192FF221A701B7893
S315000031F02C4ADBB28DF803309DF8033003F014033C
S315000032001370294A0723136000219DF80300000666
S3150000321003F1FF340CD411B1012B136011D04FF020
S31500003220140383F31188BFF36F8FBFF34F8FFEE74D
S315000032309DF803305B00DBB28DF803300121234695
S31500003240E3E74FF480731360019B154A4FF0E024C7
S31500003250DBB21370D4F8203D43F47C03C4F8203D60
S31500003260D4F8203D43F07C43C4F8203DFFF788FFA7
S315000032700E4B00251D60FFF7AFFED4F8343F43F038
S315000032804043C4F8343FFFF793FE0FF041F8FFF7D1
S31500003290ADFE284603B030BD71C20F4170C20F416A
S315000032A000E400E07C2F0000782F00007000000092
S315000032B0EFF305830F2B0ED9114A9B5C114A127846
S315000032C09A4208D94FF0140383F31188BFF36F8F26
S315000032D0BFF34F8FFEE74FF0E0230B4AD3F80C3DC8
S315000032E0126803F4E063934208D94FF0140383F3A2
S315000032F01188BFF36F8FBFF34F8FFEE7704700BF94
S31500003300F0E300E07C2F0000782F000030B5114B71
S315000033101A461B688342FBD3546841681519A842B4
S3150000332006D1214450188342516010D1104602E064
S315000033304418A3420CD1084C2468A3421FBF5C6802
S31500003340641844601C680460824218BF106030BD77
S315000033500360F9E7982F0000942F00002DE9F04153
S3150000336004460EF0C1FF4349434D0B680BBB434A6D
S3150000337056071FBFD01D20F0070002F54842131A5A
S315000033800CBF4FF44843024613443D4E083B23F01E
S315000033900703002070603260C3E90000981AC2E992
S315000033A000300B60374B1860374B18604FF0004306
S315000033B02B602F68274205D00EF0A6FF0026304668
S315000033C0BDE8F081631E0A33F6D8600704F10802EF
S315000033D026D022F0070308339342EDD9DFF8A88000
S315000033E0D8F800509D42E7D3254A14686068984291
S315000033F001D22668B6B90968A142DDD021681668EF
S315000034001160C21A102A14D9E01841070DD04FF0E6
S31500003410140383F31188BFF36F8FBFF34F8FFEE75B
S315000034201346DBE722463446E0E742606360FFF777
S315000034306DFF62681349AD1A1743144A086867603E
S31500003440002323601368C8F80050854203F1010386
S3150000345006F1080638BF0D6013600EF055FF7307BE
S31500003460ADD04FF0140383F31188BFF36F8FBFF312
S315000034704F8FFEE7942F0000802F0000A02F000042
S31500003480982F00008C2F0000902F0000882F00003E
S3150000349010B5044690B31A4A50F8043C1268134219
S315000034A008D14FF0140383F31188BFF36F8FBFF376
S315000034B04F8FFEE750F8081C41B14FF0140383F319
S315000034C01188BFF36F8FBFF34F8FFEE723EA020326
S315000034D040F8043C0EF008FF0A4A54F8043C116810
S315000034E0A4F108000B441360FFF710FF064A1368A7
S315000034F0BDE81040013313600EF006BF10BD00BFDB
S31500003500802F0000902F0000842F000070B5134C10
S31500003510134D23685E6C0023194628460222B047E5
S3150000352023681E680023194602222846B0472368EE
S315000035300C4DD3F8C0300520984723685E6C0023F5
S31500003540194628460A22B04723681C6800232846E5
S31500003550A4460A22BDE870401946604700013000C3
S3150000356000C00424000013460FB404B070470000E6
S3150000357030B5114B93F85830013BDBB2FD2B8FB0C1
S3150000358018D80E4D0FCD6C460FC40FCD0FC40FCDFE
S315000035900FC495E8030084E80300094C6846D4F894
S315000035A0443710F067FA04F027F9D4F844370020BE
S315000035B00FB030BD0120FBE700021F0858021F08AC
S315000035C000800524134B0168D3F84437F0B5012772
S315000035D0013900D2F0BDD0F808C04668CCF3845556
S315000035E0C5EBDC62346801320023013A0CD203FADF
S315000035F005F203EA0C03C3F3150324EA0202AB4007
S31500003600134333600830E3E707FA02FE43EA0E038A
S31500003610EBE700BF0080052408B51848FFF7D2FF86
S315000036201748FFF7CFFF04F0EFFB04F001FC04F0AE
S315000036300BFC04F01DFC04F027FC1248FFF7C2FF48
S315000036401148FFF7BFFF1148FFF7BCFF1048FFF70F
S31500003650B9FF1048FFF7B6FF0F48FFF7B3FF0F4853
S31500003660FFF7B0FF0E48FFF7ADFF0E48FFF7AAFFC2
S31500003670BDE808400C48FFF7A5BF00BFEC1A0000E4
S31500003680501A00008C160000581700004C17000056
S315000036906C1700002C1600002016000014160000FF
S315000036A068160000B0160000A416000010B5254CE0
S315000036B0FFF7B2FF94F8040600F00100FFF758FF89
S315000036C04FF4C023C4F86C34D4F840311E4843F498
S315000036D00023C4F84031D4F8403143F00103C4F864
S315000036E04031D4F8403143F00203C4F84031FFF7CB
S315000036F069FF16491648D1F8103543F00203C1F8A0
S315000037001035636923F400336361636943F48033DE
S315000037106361D0F84027D0F87837C2F34342023AC3
S3150000372023F4F07343EA4213C0F87837D1F894349F
S3150000373043F40023C1F89434236943F460132361EE
S3150000374010BD00BF008004247818000000A00524E6
S315000037500080052408B550B10748FFF733FF074836
S31500003760FFF730FF0648BDE80840FFF72BBF0548C6
S31500003770FFF728FF0448F6E7C018000068190000A4
S315000037805C19000034190000E01800000B48D0F85E
S3150000379000D05DF804EB5DF804CB5DF804BB5DF882
S315000037A004AB5DF8049B5DF8048B80BC40BC20BC78
S315000037B010BC08BC04BC02BC01BC7047ACF70000DE
S315000037C0114AD2F8103623F48073C2F810360F4B24
S315000037D0596B41F001015963596B41F0020159637C
S315000037E00423C2F8383482B000238DF807309DF8E0
S315000037F00730092B01D902B0704700BF9DF807308A
S315000038000133DBB2F1E700BF008004240084042406
S31500003810FEE7FEE7054B064A06498B4200D3704792
S3150000382052F8040B43F8040BF7E700BF1000000042
S31500003830904C2108401B0000064B0748DA1C121A60
S31500003840C11E22F00302994288BF002200210CF01B
S315000038507BBC00BF600C0100401B000008B5FFF7F1
S31500003860D9FFFFF7E9FF00F0B3F8BDE80840FDF720
S31500003870B5BF000038B5374B374A1A60374B384A60
S3150000388093F80636374C03F00F030F2B15BF364B54
S315000038904FF00063D3F89312D3F837140CBF1160BE
S315000038A01160324A0CBFD3F83634D3F89232136023
S315000038B004F022F904F022F92D4BDB694FF0806108
S315000038C0D3F880304FF08C409847E369022060F3CC
S315000038D00E33E361274BDA696FF30202DA6104F013
S315000038E087F91E4B1A6A042161F302021A621A6AE8
S315000038F01207FCD5A369022262F38403A361A369BC
S315000039001B04FCD51C4B1D4D5A6E6FF341025A66C3
S315000039105A6E6FF300025A66FFF752FF184B1948AA
S315000039200D4A18614FF4FA44D86117485C620021C9
S315000039301C624FF40044C3E90022C3E90B05C3E946
S315000039400F2299605961DA609C625A6358649961E2
S3150000395038BD00BF00F80000005A6202008004244F
S31500003960A8F700000081042400001F08A4F7000047
S31500003970000130000086042400840424002D310157
S31500003980B0F7000000B4C4040048E8014FF0E0239B
S3150000399084B0D3F8402F0192D3F8442F02920199B4
S315000039A0094A91420DD10299084A914209D1D3F8A8
S315000039B0882D0392039A42F470020392039AC3F885
S315000039C0882D04B0704700BF2100111011000011AE
S315000039D013B50023009301932F4BD3F810250092C3
S315000039E0009A00922D4A116821F00F0111601168AA
S315000039F01160D3F89C1421F46071C3F89C14D3F8B9
S31500003A00041701910199C3F80415D3F80017019121
S31500003A100199C3F80015D3F8101541F01C01C3F83D
S31500003A201015D2F8024014F48074FAD11C48436988
S31500003A3043F480334361436964F351434361FFF7C1
S31500003A40A5FF184B4FF080725A60174BC0F84031F3
S31500003A50164B5A6864F3C3025A60036A0E4A43F46B
S31500003A6080330362036A43F400330362D2F894346A
S31500003A7043F40023C2F89434036943F460130361EA
S31500003A800B4B1A6842F400221A601A6842F480222C
S31500003A901A6002B010BD00BF00A005240000052476
S31500003AA00080042400003041030008000081042443
S31500003AB00084042420F04040012802D0022805D0CA
S31500003AC07047034A1368013313607047014AF9E7E8
S31500003AD008F8000004F8000010B5124CE368984797
S31500003AE0A36811489847236902209847A46A0121D0
S31500003AF01520A04701211620A0474FF4E1310120EF
S31500003B00A0470A4C206810B9FEF71AF92060084B46
S31500003B104FF48052C3F88020BFF34F8FBFF36F8FEF
S31500003B2010BD00BF90392108B54A20080CF80000E6
S31500003B3000E100E013B5094C00238DF80430236042
S31500003B40074B01219B6901A8984723681BB19DF883
S31500003B50040002B010BD00F001FBF6E704F8000017
S31500003B609039210813B5094C8DF80700002323600E
S31500003B70074B01215B690DF10700984723680BB1DC
S31500003B8002B010BD00F0EAFAF8E700BF08F800003E
S31500003B909039210803681B780022202B04D0093BAA
S31500003BA0042B01D9D0B270470368591C01605B78B9
S31500003BB00132F2E70120704708B505F0A3FA162393
S31500003BC003604FF0FF3008BD08B505F09BFA1623D9
S31500003BD00360FEE770B50D461446FDF7DFFE0228CA
S31500003BE005D10C4B4FF0FF311868FEF7F3F82E465F
S31500003BF0731BA34209DBFDF7D1FE022803D1054B57
S31500003C001868FEF717F9204670BD16F8010BFFF786
S31500003C10A9FFEDE70CF800004FF0FF3070474FF4B6
S31500003C2000534B600020704701207047002070470A
S31500003C300FB42DE9F0438BB012AB002453F8046B9C
S31500003C4001938DF81040FFF775FF0D288DF81000D1
S31500003C50F7D00A28F5D0002425460134142C2ED09E
S31500003C60FFF768FF04F128036B440D2803F8180CCE
S31500003C7001D00A28F0D105F128030DEB0305002336
S31500003C8005F8163C04AB03939DF81030019F02968D
S31500003C90002B00F04E810025029B1B78002B3BD0A9
S31500003CA0DDF80C9099F80060002E35D002A8FFF7D9
S31500003CB071FF044638B103A8FFF76CFFECE7002359
S31500003CC08DF82430DEE7029A1346517813F8010B7B
S31500003CD00293252801D1252907D18E421CD109F14D
S31500003CE00103023203930292D6E726462046A046F7
S31500003CF01A7806F07C01002A67D100B102930029E8
S31500003D0067D109E0692A51D01ED8632A53D011D849
S31500003D10392A07D82F2A35D8E8B20BB0BDE8F043C8
S31500003D2004B07047582AF7D146F0200601334FF009
S31500003D30100833E0642AEFD146F4005646F0200618
S31500003D4001334FF00A0829E06F3AD1B20929E3D8C6
S31500003D50092AE1D801A151F822F000BFA14D20089F
S31500003D60194D2008194D2008194D2008C54D200869
S31500003D70194D20083D4D2008194D2008194D2008E1
S31500003D80294D2008002CC7D10A211A78303A01FBA8
S31500003D90042413F8012F303A092AF6D90120A7E79F
S31500003DA046F0200601334FF00808F7E746F02006F4
S31500003DB001338846F2E7012C46F0040638BF012499
S31500003DC00133EBE746F00806FAE700299AD000B17E
S31500003DD00293002C08BF632408291BD0202940D059
S31500003DE0042999D157F8042B4946144400200E782B
S31500003DF00B4601310EB938B94EE702F8016B944211
S31500003E004FF00100F3D10B46994503933FF444AFBD
S31500003E10013541E703A8FFF7BDFEDDF80CC057F8F2
S31500003E20042B664614440021307810F0DF0F334629
S31500003E3006F1010601D161B92EE7A0F1090EBEF126
S31500003E40040FF8D902F8010BA2424FF00101EBD1A1
S31500003E5033469C4503933FF41FAF374B00221A703D
S31500003E60D6E703A8FFF796FE039BB8F1000F10D024
S31500003E70B8F1100F17D11A78302A14D15A7802F0F7
S31500003E80DF02582A0FD102330393023C4FF0100889
S31500003E9009E01A78302A16D15A7802F0DF02582A39
S31500003EA0F1D04FF00808039B1A782B2A0ED02D2A42
S31500003EB00FD101330393013C4FF0FF31039A0020E9
S31500003EC01444844614E04FF00A08ECE701330393E8
S31500003ED0013C0121F2E7A9F14103052B02D910B3F8
S31500003EE0039220E0A9F1370315E00CFB083C012002
S31500003EF092F800909646B9F1000FF0D0A242EED0AB
S31500003F00A9F13003DBB2092B06D9A9F16103052B10
S31500003F10E1D8A9F15703DBB2984502F10102E4D8D2
S31500003F2008B1CDF80CE057F8043B0CFB01F1196021
S31500003F306EE74FF0FF35EFE610F800000448022365
S31500003F401421C21801334B2B82F80013F9D17047A4
S31500003F5000E100E0064B1868002382B262F30F030B
S31500003F60000C60F31F4382B0184602B0704700BFD2
S31500003F70043A2108014B1868704700BF8C00000006
S31500003F80014803F05DBA00BF8C000000014903F050
S31500003F9015BA00BF8C000000014803F0EDB900BF60
S31500003FA08C00000037B504460B200D4600F04CF996
S31500003FB0064B1B680193064B00930246054B2946A8
S31500003FC0204602F069FD03B030BD00BF0CFC0000C6
S31500003FD0740000008C000000014802F059BD00BFCB
S31500003FE08C000000014802F050BD00BF8C000000AC
S31500003FF07FB5104BD3E90354B2F5806F2E883ABFD4
S3150000400002F1FF33C3F3090340F2FF3363F30D16E6
S315000040102E80258863F30D15074B25801B680293B8
S31500004020064B0193064B0093024B02F0F5FC04B0DD
S3150000403070BD00BF8C0000000CFC000024F80000DE
S31500004040740000000D4B1A69B1F5806F13B538BFC7
S3150000405001F1FF33148834BFC3F3090340F2FF3381
S3150000406063F30D14064B14801B680193054B0093F4
S31500004070024A054B02F032FC02B010BD8C00000073
S315000040800CFC000024F80000740000000D4BDA68F8
S31500004090B1F5806F13B538BF01F1FF33148834BF13
S315000040A0C3F3090340F2FF3363F30D14064B148088
S315000040B01B680193054B0093024A054B02F060FB17
S315000040C002B010BD8C0000000CFC000024F80000BB
S315000040D074000000024B034A1B68034902F0A8BAA9
S315000040E00CFC0000740000008C000000034B044927
S315000040F004484FF400129A6402F04ABA0084042479
S31500004100740000008C00000007B5064B0193064BB7
S315000041100093064A064B074902F0AAF903B05DF878
S3150000412004FB00BF94FB00000CFC000074000000C0
S31500004130001C06248C000000014802F071B800BF84
S3150000414014010000014802F06BB800BFD000000067
S31500004150014802F065B800BF8C000000FFF7F8BF09
S31500004160354BDFED366AD3F8102242F04002C3F831
S31500004170102207EE900AD3F81022F4EEE67A42F007
S315000041801002F1EE10FA07EE101A82B0C3F81022F0
S3150000419006DCF0EE086AB4EEE67AF1EE10FA08D51F
S315000041A0D3F8102242F02002C3F81022002002B0F9
S315000041B070479FED237AF4EEC77AF1EE10FA10D528
S315000041C0D3F810226FF30302C3F81022D3F810229B
S315000041D06FF38612C3F81022D3F810226FF304127D
S315000041E0E2E777EEC77ADFED176A134A87EEA67A1B
S315000041F0F7EE007A77EE277AFCEEE77ACDED017AD4
S315000042009DF80430F6EE007A77EE277A07EE103A3C
S31500004210B8EE477AB4EEE77AF1EE10FAC2BFFCEEDA
S31500004220E77ACDED017A9DF80430D2F8101263F3E7
S315000042300301C2F81012B9E70038042433333340BF
S31500004240CDCCCC3F0AD7A33DD0B50E2800F27C8258
S31500004250DFE810F00F005A009500D00004010F01AE
S315000042604101710181019001B701DC0107023202AF
S3150000427054024FF08C43DB6903F00703042B41D84B
S31500004280DFE803F0033A34373D00844B9A6C013A79
S31500004290052A37D8DFE802F0032224222628586CA4
S315000042A04FF08C43DC69DB69C4F3C30413F0005F91
S315000042B060D094B10AF018FC064620460F460AF074
S315000042C013FC774B00220AF0D3FA02460B4630461F
S315000042D039460AF0ADFD0AF01BFFD0BDD86ADFE70C
S315000042E0D86BDDE7186BDBE7586BD9E76B4BD86902
S315000042F0D6E76A4B5869D3E7684B9868D0E7674BAF
S31500004300D868CDE70020CBE74FF08C43DB69C3F3D9
S31500004310C213042B2CD8DFE803F003251F22280044
S315000043205E4B9A6C013A052A22D8DFE802F0030DAB
S315000043300F0D1113586C4FF08C43DC69DB69C4F325
S31500004340832413F0804FB3E7D86AF4E7D86BF2E71B
S31500004350186BF0E7586BEEE7504BD869EBE74F4B1D
S315000043605869E8E74D4B9868E5E74C4BD868E2E7B3
S315000043700020E0E7002CB0D0B0FBF4F0ADE74FF042
S315000043808C439B69C3F3C233052B31D8DFE803F0B6
S31500004390032124272A2D414B9A6C013A052A27D856
S315000043A0DFE802F0030F110F1315586C4FF08C4322
S315000043B09B69C3F3C32213F4F04F8ED0B0FBF2F027
S315000043C08BE7D86AF2E7D86BF0E7186BEEE7586B25
S315000043D0ECE7324B9868E9E7304B1869E6E72F4B74
S315000043E05869E3E72D4BD869E0E72C4BD868DDE741
S315000043F00020DBE74FF08C439B6AC3F34243032B59
S315000044002AD8DFE803F002202326244B9A6C013ACF
S31500004410052A21D8DFE802F0030F110F1315586C97
S315000044204FF08C439A6AC2F3055312F07C7F3FF437
S3150000443054AF5B004CE0D86AF2E7D86BF0E7186B34
S31500004440EEE7586BECE7154B5869E9E7134B9868AC
S31500004450E6E7124BD868E3E70020E1E74FF08C422D
S31500004460936903F00703032B25D8DFE803F0081B45
S315000044701E214FF08C42D36FC3F34223F3E7074B61
S31500004480D86A91699369D2698C05C3F3C503C2F3EF
S31500004490007212D5B2B9DBB91FE700BFB0F7000052
S315000044A00000E03F824BD869EBE7814B5869E8E7AB
S315000044B07F4B9868E5E70020E3E71AB9002BB8D1EF
S315000044C040080AE7D9077FF508AF022B7FF605AF4C
S315000044D0B0FBF3F001E74FF08C439B69C3F3026333
S315000044E0042B00F23181DFE813F0DF0005001D0028
S315000044F0200023006E4B9A6C013A052A00F22481B3
S31500004500DFE812F0060008000B0008000D00F700B7
S31500004510586CE2E6664BD86ADFE6D86BDDE6644B9C
S31500004520186BDAE6624B9868D7E6614BD869D4E631
S315000045305F4B5869D1E64FF08C42936913F4802F94
S315000045405B4B0CBF58699868936992691202C3F372
S31500004550C343B3D59FE74FF08C439A6A12F4806F3A
S31500004560534A0CBF9069D0689A6AC2F3C52312F405
S31500004570FC3F5CE74F4A93691B0F062B1FD8DFE809
S3150000458003F0040C0F1215181B00494B5868936969
S31500004590C3F3464213F47E0F0FE7454B186AF6E75E
S315000045A0434B586AF3E7424B986AF0E7404BD86AA8
S315000045B0EDE73F4B186BEAE73D4BD868E7E700208D
S315000045C0E5E73C4AD369C3F34303052B1CD8DFE870
S315000045D003F0030C0F121518354B5868D369C3F353
S315000045E04713002B7FF425AF77E6314B186AF5E7C2
S315000045F02F4B586AF2E72E4B986AEFE72C4BD86A96
S31500004600ECE72B4B186BE9E70020E7E7294A136A2A
S31500004610C3F34303072B22D8DFE803F0040C0F1281
S3150000462015181B1E224B5868136AC3F3421213F067
S31500004630E00FC2E61E4B186AF6E71D4B586AF3E711
S315000046401B4B986AF0E71A4BD86AEDE7184B186BC4
S31500004650EAE7174BD868E7E7154B586BE4E7002005
S31500004660E2E7144B1B6BC3F34303062B6CD801A282
S3150000467052F823F091562008975620089D56200898
S31500004680A3562008155520081F552008A9562008AE
S31500004690074B586821E6064B186A1EE6044B586A13
S315000046A01BE6034B986A18E6014BD86815E600BF6F
S315000046B0B0F7000000140424244B5B6BC3F34303E0
S315000046C0082B41D801A252F823F000BF91562008CA
S315000046D0975620089D562008A356200815552008F1
S315000046E01F552008A9562008F1562008F75620081D
S315000046F0174B586BF1E5164B9869EEE5134AD36AEA
S31500004700C3F34303062B1DD8DFE803F0040A0D109C
S31500004710131619000E4B5868D36AC3F34713BAE64B
S315000047200B4B186AF8E70A4B586AF5E7084B986A84
S31500004730F2E7074BD86AEFE7054B186BECE7044B3B
S31500004740D868E9E70020E7E70020C6E5001404245E
S31500004750B0F70000024B1B68D3F8BC30184700BF07
S3150000476000013000024B1B68D3F8CC30184700BF5D
S3150000477000013000024B1B68D3F8EC30184700BF2D
S3150000478000013000024B01219B69C0B2184700BFEF
S31500004790C0FC0000FFF7F6BF1346054A126810B4C6
S315000047A0546C0A46A44600215DF8044B604700BFDE
S315000047B000013000034B1B6A02469B6A0248012136
S315000047C0184700BF0001300000140424104B114AA2
S315000047D01B7F82B0012BADF804000F4BC0B24FF423
S315000047E000610DD9116020B9D3F808220A43C3F835
S315000047F008225A68002042F001025A6002B070474F
S3150000480011600028F5D1D3F8082242F40062EEE7E1
S31500004810C0FC000000E100E0003804242DE9F04F60
S31500004820224B234893F81CE0224B1A7800231C469F
S3150000483002F59875D9B28E450CD8DFF88080002332
S31500004840A8F5107902F5907CDAB2964509D80020D1
S31500004850BDE8F08F30F815108C4238BF0C46013396
S31500004860E8E743B929F81C300133EDE7B5F820B085
S31500004870594489B20AE000271FFA83FABEB2B4424D
S31500004880F2D900220C4D104635F8021FA14203D280
S31500004890B142EBD1013292B2013080B25045F3D32E
S315000048A00137002AEAD128F81360DDE7C0FC0000D2
S315000048B0E0FC0000BCFC00001EFF000020FF000022
S315000048C0012800D17047C30701D44008F8E700204B
S315000048D0704703460120834208DC00EBD072A3EB4D
S315000048E06203B3EBA00FB8BF400870474000F2E781
S315000048F007EE100ADFED087A084837EE277AF7EE5A
S31500004900006AC6EE877AFCEEE77A17EE903A8342A3
S3150000491028BF03461846704795BFD633404B4C0018
S3150000492084B0F0B506AC84E80E00DFED957A002180
S3150000493023AC0DF16B050A460B46CEB2B04200F22F
S31500004940AF80002B00F0A380B0EE007AF4EEC77AB9
S31500004950F1EE10FAB0EE047A05DBF4EEC77AF1EE6A
S3150000496010FA00F1DF80F4EEC77AF1EE10FAB0EE3D
S31500004970087A05DBF4EEC77AF1EE10FA00F1D8807A
S31500004980F4EEC77AF1EE10FAB1EE007A05DBF4EE3A
S31500004990C77AF1EE10FA00F1CE80F4EEC77AF1EEA6
S315000049A010FAB1EE047A05DBF4EEC77AF1EE10FAEE
S315000049B000F1C480F4EEC77AF1EE10FA07DBB1EE2F
S315000049C0087AF4EEC77AF1EE10FA00F1BA80B1EE89
S315000049D00C7AF4EEC77AF1EE10FAB2EE007A05DB45
S315000049E0F4EEC77AF1EE10FA00F1AE80F4EEC77A73
S315000049F0F1EE10FAB2EE027A05DBF4EEC77AF1EECA
S31500004A0010FA00F1A480F4EEC77AF1EE10FA06DB94
S31500004A10B2EE047AF4EEC77AF1EE10FA6FD4B2EE83
S31500004A20087AF4EEC77AF1EE10FA06DBB2EE0C7AEB
S31500004A30F4EEC77AF1EE10FA6ED4B3EE017AF4EE24
S31500004A40C77AF1EE10FA06DBB3EE027AF4EEC77A15
S31500004A50F1EE10FA63D4B3EE097AF4EEC77AF1EE0A
S31500004A6010FA06DBB3EE0A7AF4EEC77AF1EE10FA24
S31500004A7070D9B3EE0B7AF4EEC77AF1EE10FA06DBD4
S31500004A809FED407AF4EEC77AF1EE10FA74D9DFEDB5
S31500004A903E7A9FED3E7A002A18BFF0EE477A65E02F
S31500004AA015F8016FA6F1140CBCF1020F2F7C0FD87C
S31500004AB094ED007AB4EEE77AF1EE10FA03DD0133F5
S31500004AC0DBB2F0EE477A0D2F16D00131043434E70D
S31500004AD0A7F10A0CBCF1020F0CD894ED007AB4EEE3
S31500004AE0E77AF1EE10FA03DD0133DBB2F0EE477A36
S31500004AF0182EE9E7182EE6D10132D2B2E5E7DFED4E
S31500004B00247A9AB39FED217AF4EEC77AF1EE10FA81
S31500004B1023D5F0EE477A29E0DFED1E7AF1E7DFEDE7
S31500004B201E7AEEE7DFED1D7ABAB1DFED187A1DE0E9
S31500004B30DFED1B7AF8E7DFED1B7AF5E7DFED1A7A92
S31500004B40F2E7DFED1A7AEFE7DFED197AECE7DFED52
S31500004B50197AE9E7DFED187A42B19FED0B7AF4EEA8
S31500004B60477AF1EE10FA48BFF0EE477ABDE8F0401A
S31500004B7017EE900A04B07047DFED107AECE700BF3D
S31500004B800000000000004C4295BFD6338BE16A3628
S31500004B90ACC5A735EFE608369F9D42362E5A8233BE
S31500004BA001A90C3437F859342439EC3434580F350C
S31500004BB0AD186335883E8A35B1B49D36F2DD1C37B3
S31500004BC070B50D4616460446D0B9FFF7D3FDAA4880
S31500004BD007222146FFF7E0FD002D40F0AA81012EB5
S31500004BE000F09F810B2C1DD00C2C40F0F580052089
S31500004BF0FFF7C0FDA04807220521FFF7CDFD98E08D
S31500004C00012818D10220FFF7B5FD9B480722022193
S31500004C10FFF7C2FD002D76D1012E00F082810B2C0C
S31500004C2040F0DA800320FFF7A5FD07220321924812
S31500004C30FFF7B2FD96E002280ED10420FFF79AFD99
S31500004C40072204218C48FFF7A7FD002D00F066819E
S31500004C50012D40F0778155E1032805D10620FFF7A5
S31500004C6089FD07220621EDE7042805D10820FFF774
S31500004C7081FD07220821E5E7052805D10A20FFF76F
S31500004C8079FD07220A21DDE706280CD17B4B20227D
S31500004C905A601920FFF766FD1920FFF75BFD78487B
S31500004CA00E221921B4E707281ED1744B20225A6020
S31500004CB01B20FFF757FD1B20FFF74CFD0E221B2183
S31500004CC06F48FFF769FD002D00F02881012D40F0A7
S31500004CD0D980012E00F019810C2C21D10520FFF777
S31500004CE049FD07220521A2E7082840F0FD80634B15
S31500004CF020225A601D20FFF735FD1D20FFF72AFDF3
S31500004D000E221D21DCE70B2C1ED0012D40F01A814E
S31500004D10012E00F0FA800C2CE0D00D2C00F0C180A2
S31500004D200E2C50D00F2C6FD0102C75D12EE0022DEA
S31500004D3040D0032D52D1012E59D00E2C70D00F2CFD
S31500004D4062D0102C30D121E00320FFF713FD4A4832
S31500004D5007220321FFF720FD022D2BD0032D03D1BF
S31500004D60012E44D0002070BD042D00F0A480052D36
S31500004D70DAD1012E40F0A3800720FFF7FBFC0722C3
S31500004D803D481146FFF708FD102C5ED13B4B202213
S31500004D905A601A20FFF7E6FC1A20FFF7DBFC3848BA
S31500004DA00E221A21FFF7F8FC112C50D0072D5CD1EA
S31500004DB0012E88E0012ED5D169E0012E67D00D2C99
S31500004DC00FD00E2CBBD10920FFF7D4FC2A480722AE
S31500004DD00921FFF7E1FCCAE70D2C62D00E2C68D141
S31500004DE0F1E70B20FFF7C6FC07220B211FE70B207C
S31500004DF0FFF7C0FC204807220B21FFF7CDFC8FE709
S31500004E000E2CE0D00F2CB2D10720FFF7B3FC0722FF
S31500004E1019481146FFF7C0FC062DC5D1012E4FE0FB
S31500004E200920FFF7A7FC0722092100E70920FFF761
S31500004E30A1FC114807220921FFF7AEFC7FE70720F6
S31500004E40FFF798FC07221146F1E6112C0DD10B4B0A
S31500004E5020225A601C20FFF785FC1C20FFF77AFCF5
S31500004E6007480E221C21FFF797FC122C2FD0082D85
S31500004E707FF478AF012E28E000C004240000304102
S31500004E8000001346022D7FF454AF012E99D1052060
S31500004E90FFF770FC2E4807220521FFF77DFC0D2C3D
S31500004EA0AED10B20FFF766FC294807220B21FFF73E
S31500004EB073FC042DA6D1012EB8D00F2CBFD0102C18
S31500004EC03FF464AF112CC2D0122C7FF44BAF214BB0
S31500004ED020225A601E20FFF745FC1E20FFF73AFCF1
S31500004EE01D480E221E21A3E60A287FF475AE012076
S31500004EF0FFF740FC164807220121FFF74DFC012D64
S31500004F007FF415AF012E7FF42DAF0320FFF732FC9F
S31500004F100F4807220321FFF73FFC65E6012E7FF4C9
S31500004F2021AF0120FFF726FC094807220121FFF7E0
S31500004F3033FC0B2C3FF408AF012D3FF4E9AE0C2CEB
S31500004F403FF455AE022D3FF438AF0D2CA9D0F0E654
S31500004F5000C0042400003041000013462DE9F04152
S31500004F600F29BDF81850BDF81C609DF820809DF8EB
S31500004F7024E055D845EA0604B4F5806F50D22B4C90
S31500004F8001F1100701F1400C44F8273001F15007F8
S31500004F909A4244F8212024F81C5024F8176041D086
S31500004FA0B8F1000F17D001F1300802EB4502C0F846
S31500004FB0D42144F8282045EAC12242F40048C0F82A
S31500004FC0D881D0F8D881C0F8D821D0F8D82144F8B3
S31500004FD02C8044F82720BEF1000F02D10020BDE846
S31500004FE0F08101F1600205EB46052B44C0F8D4318F
S31500004FF044F82230CB0203F58063334343F4004286
S31500005000C0F8D82101F17002D0F8D85144F82250E6
S315000050108031C0F8D831D0F8D83144F82130DDE7F6
S315000050200120DCE742F20210D9E700BFE0FC0000F5
S315000050300F2910B528D892B1144A01F1300452F85C
S315000050402440C0F8D44101F1400452F82440C0F88D
S31500005050D84101F1500452F82420C0F8D8218BB170
S315000050600A4B01F1600253F82220C0F8D42101F165
S315000050707002803153F8222053F82130C0F8D8212D
S31500005080C0F8D831002010BD0120FCE7E0FC00008C
S3150000509010B5274B27485A685A6842F001025A60F1
S315000050A0D3F8082242F48062C3F8082203F5B43329
S315000050B01A68026852BBD3F8402442F46752C3F818
S315000050C040241D4AD2F80230DC05FBD41B4BD3F832
S315000050D00427D107FBD5D3F80427D207FBD4D3F88E
S315000050E04824174C174B21681A60930803F4F853A9
S315000050F00B43910001F07C0112020B4302F478325B
S31500005100134343F081032360012303600C4B1A68A9
S315000051100A4BC3F84424084AD2F8023013F48073C9
S31500005120FAD1034A516863F30001516010BD00BF14
S3150000513000380424B0FC00000000052400A005246B
S31500005140B8FC0000B4FC00000F29024610B54FF071
S3150000515001000CD8D2F8CC4100FA01F32343D2F86F
S31500005160CC119BB263F30F01C2F8CC11002010BD25
S315000051700F29024610B54FF001000DD8D2F8CC41E8
S3150000518000FA01F343EA1443D2F8CC119BB263F35D
S315000051901F41C2F8CC11002010BD30B50F299DF873
S315000051A00C402CD81F2A2AD80F2B28D8012C26D8F9
S315000051B045686D060FD5090134B14518AC6B44EA54
S315000051C0835343F08063AB6301448B6B43EA4243F2
S315000051D08B63002030BD5CB1D0F8081241F4007139
S315000051E0C0F80812D0F8081263F34811C0F8081284
S315000051F0D0F8083262F30403C0F80832E9E7012068
S31500005200E8E7000029B9D0F8083261F3CB23C0F8EB
S315000052100832064B5B68DB0741BF43686FF3000348
S315000052204360002058BF4FF0FF3070470038042419
S31500005230C1B2024882B002B0FFF7E4BF00380424CE
S315000052400F2915D80D4B5A68520603D4D3F8DC3112
S31500005250002B0FDAD0F8DC2101238B401343D0F862
S31500005260DC219BB263F30F02C0F8DC2100207047FB
S31500005270012070474FF40450704700BF00380424E3
S31500005280B1F5007F14D2B2F5806F11D243686FF387
S315000052908A234360C36861F31843C360C36862F33B
S315000052A00903C360436843F480634360002070478A
S315000052B0012070470F2925D8012A05D1436A6FF3CB
S315000052C0D753436200207047022A0BD1436A6FF31B
S315000052D000034362436A6FF304134362436A6FF346
S315000052E0C303EEE7084BD3F8DC31002BEADA436A56
S315000052F00122C3F3CF138A4023EA0201436A61F312
S31500005300D613DEE701207047003804240F29034630
S315000053104FF0010014D81A6A00FA01F189B2186A2E
S31500005320C2F30F220A4362F3172018621A6AC2F305
S315000053300F2222EA0102196A62F31721196200207C
S315000053407047000008B510B101280ED008BD4FF413
S31500005350006002F00DFC104B4FF000725A640F4AC9
S31500005360137843F001031370F0E74FF4006002F086
S3150000537019FC0A4A13786FF300031370DBB2002B93
S31500005380E4D1074B07481B6A0221DB6B9847024BA7
S315000053904FF000729A64D9E70084042410000100DB
S315000053A0000130000014042484B0F0B52DED028B0A
S315000053B083B00AAC84E80F005A4D709B0F9CAB611A
S315000053C0594B9DF8BD61BDF81C112E77621E9A429D
S315000053D080F0A4800FAA01239E420AD8012E40F035
S315000053E081809DF8BC3183B1012911D942F20610A2
S315000053F071E0174652F8040F3F68B84200F28E80FB
S31500005400002800F08B800133E6E7B1F5806FEDD21E
S315000054100020FFF797FF0420FFF7CCF9434B4448E1
S315000054205A686FF38A225A60DA686FF31842DA60B4
S31500005430DA68042161F30902DA605A683D4942F4E8
S3150000544080625A60FEF78CFEFFF722FE012E16BF21
S315000054507443A4006400B4F5FA4F46D20220FFF765
S31500005460A9F94FF4FA436B6002F02CFD288102F093
S315000054701DFD288202F02CFDC0F30D0307EE103A45
S315000054809FED2D8AB8EEC77A830BC7EE086A07EE42
S31500005490903AF8EEE77A77EEA67AC5ED037A02F04F
S315000054A00BFDC0F30D0307EE103AB8EEC77A830B77
S315000054B0C7EE086A01A807EE903AF8EEE77A0023ED
S315000054C077EEA67A0193C5ED057A03F0E9F900387F
S315000054D018BF0120404203B0BDEC028BBDE8F0408E
S315000054E004B07047731E0F2B7FE7144BA4F5FA44E4
S315000054F09C4204D80420FFF75DF9114BB3E7114B2A
S31500005500DC6914F0080407D1022002F037FE2046B9
S31500005510FFF750F90C4BA6E70C4BA4E742F2041038
S31500005520D9E700BFC0FC0000A025260000380424EF
S3150000553033333340CDCC4C4000007A4400B80B00E6
S315000055400048E80100000812005A6202002D3101ED
S3150000555084B070B52DED028B82B008AC84E80F00E4
S31500005560574C9DF820206E99A16108A901EB820194
S3150000557054484969544E9DF8B5313270013981421B
S31500005580237780F09A80012B7AD108AB03EB420295
S31500005590B2F8F4309DF8B42122B1012B05D942F2BC
S315000055A0061066E0B3F5806FF9D20020FFF7CAFE59
S315000055B00420FFF7FFF8454B45495A6845486FF305
S315000055C08A225A60DA686FF31842DA60DA680425CC
S315000055D065F30902DA605A6842F480625A60FEF79F
S315000055E0BFFDFFF755FD337808AA02EB830342F2AD
S315000055F028325B69934246D80220FFF7DBF84FF466
S31500005600FA43636002F05EFC208102F04FFC2082C8
S3150000561002F05EFCC0F30D0307EE103A9FED2E8AF2
S31500005620B8EEC77A830BC7EE086A07EE903AF8EE33
S31500005630E77A77EEA67AC4ED037A02F03DFCC0F372
S315000056400D0307EE103AB8EEC77A830BC7EE086A69
S3150000565001A807EE903AF8EEE77A002377EEA67AED
S315000056600193C4ED057A03F01BF9003818BF012039
S31500005670404202B0BDEC028BBDE8704004B07047FA
S31500005680013B0F2B8AE7154AA3F50C53293B93429E
S315000056900BD82846FFF78EF8114BDA6A114B9A425F
S315000056A001D1104BADE7104BABE7104BDB691B0785
S315000056B0F9D4022002F062FDEBE742F20410D8E7CB
S315000056C0C0FC0000A0252600BCFC00000038042415
S315000056D0CDCC4C403333334000007A44D6110C0015
S315000056E0B0F700000048E801002D31010000081263
S315000056F013B50D4BADF804004FF40062C3F88020DB
S31500005700BFF34F8FBFF36F8F03220121002003F0F9
S315000057109BF9044628B90120FFF714FE204602B083
S3150000572010BD4FF0FF30FAE700E100E04368064A9B
S3150000573061F349234360D2F8403443EA4143C2F857
S3150000574040340020704700BF00A0052484B02DE936
S31500005750F04F2DED048BEDB07AAC84E80F009DF888
S315000057607D3362934FF4C47201237DA96846699321
S315000057709DF87C53DFF894A30AF0D2FD94E80E005E
S315000057806298FFF7CDF808EE900AFFF7B1F8DAF85D
S31500005790048007EE900A07EE108AF8EE677AB8EEF4
S315000057A0477AB7EE008A88EE079A88EE277AC7EE20
S315000057B0097A17EE900A09F0B9F90CF0B9FC09F06C
S315000057C0A7FCC8EE897A84B217EE900A09F0AEF902
S315000057D00CF0AEFC09F09CFC86B2B44208BF013462
S315000057E07F9F08BFA4B2002D65D1B8FBF4F3AAF8D9
S315000057F00060AAF80240DFF818A363930DF5FC7B5E
S315000058005146AAF25E284FF00209629AEBB29A421A
S3150000581000F2C880B74DDFF8F4B2FEF7FFFF22466C
S3150000582031462846FFF72CFD01212846FFF77EFF6B
S315000058306B68B14E43F000636B606B6843F04003E6
S315000058406B606B686FF341036B603323C5F8E4311B
S315000058506B6843F004036B60D5F8DC3143F000431A
S31500005860C5F8DC310DF2DA23659306F18103A6AFA4
S3150000587006F13E0A66930DF5F47800246791629A64
S31500005880E3B29A4200F2D7809C4B6A9300229C4B6B
S315000058906B9369A9104603F03BF810B1452840F018
S315000058A0258169996AAA002003F0A0F8003818BF7C
S315000058B00120404269E0204609F026F9B8FBF7F7D7
S315000058C080463846894609F00FF902460B4640469F
S315000058D0494609F0F5FB00285ED1AAF80060AAF84F
S315000058E00240224631468348FFF7CAFC012181481F
S315000058F0FFF71CFF7F4B5A6842F000625A605A68F5
S315000059006FF386125A606A1E012A5A684FF0000128
S3150000591094BF42F0020265F341025A60C3F8E411F3
S315000059205A6842F004025A60D3F8DC2161F3DF7250
S31500005930C3F8DC219DF8E9219DF83C029DF84C1244
S315000059405AB1D3F8084262F34924C3F80842D3F89F
S31500005950084261F34814C3F80842664CD4F808328A
S3150000596060F30403C4F80832FFF72AF92A46002137
S315000059702046FFF79FFCBAF80220DAF80430B3FBA2
S31500005980F2F3604A0020C2F880326DB0BDEC048BA1
S31500005990BDE8F04F04B07047BAB2AAF80060AAF8A2
S315000059A002209FE79DBB639BB3FBF7F39BB2012BE2
S315000059B08CBFA8F86032A8F86092629B012B08D0D1
S315000059C04A881046FEF77CFF18B91046FEF781FF9D
S315000059D04880DFED4D7A524600231FFA85FC32F8E7
S315000059E0020F07EE100AB8EE477A0133C8EE076ACF
S315000059F09BB2634577EEA67AF1D9F4EEC87AF1EE5A
S31500005A0010FA0DDC013502310BF1040BFDE6DBE982
S31500005A100032B3FBF2F20B8813FB02F34B80CCE7A8
S31500005A205246002332F8020F01339BB24000634511
S31500005A301080F7D9E6E798F8549098F864306493A4
S31500005A4018F8013F639300934A462146649B284613
S31500005A50FFF7A3FB36F8021F328C012A08D0A300F9
S31500005A6003F1105303F58723A3F83811C3F87821FF
S31500005A7021462846FFF7E4FBDDE963214846FFF7A8
S31500005A809FF821462846FFF773FB659B33F8029F74
S31500005A906593679BCDE90099CDE902332146D7F896
S31500005AA0A4307A6E2846FFF759FA21462846FFF7B2
S31500005AB04BFB002221462846FFF7FCFBBBF80220E1
S31500005AC0DBF80430B3FBF2F3328CB3FBF2F34AF8A3
S31500005AD0043F57F8043FA6F8D090CAF85030669BAA
S31500005AE0639A03F8012F01346693C8E64FF0FF303E
S31500005AF04BE700BF003804241EFF0000855720082E
S31500005B0095572008E0FC000000000000C0FC0000E3
S31500005B103EFF000084B02DE9F04F2DED048BEBB075
S31500005B2078AC84E80F0021469DF87533DFF810A3A2
S31500005B3011F80C8B62934FF4C47201236846679385
S31500005B409DF874638AF800800AF0EAFB94E80E0078
S31500005B506298B44DFEF7E4FE08EE900AFEF7C8FE22
S31500005B60D5F804B007EE900A07EE10BAF8EE677A99
S31500005B70B8EE477AB7EE008A88EE079A88EE277A5B
S31500005B80C7EE097A17EE900A08F0D0FF0CF0D0FAAB
S31500005B9009F0BEFAC8EE897A84B217EE900A08F0C8
S31500005BA0C5FF0CF0C5FA09F0B3FA87B2BC4204BFD0
S31500005BB00134A4B2002E55D1BBFBF4F378AA64934A
S31500005BC008F1040302EB830397492F806C800DF5DF
S31500005BD0F8796593629AF3B29A4200F2C180934EC5
S31500005BE0FEF71CFE224639463046FFF749FB0121E7
S31500005BF03046FFF79BFD73688D4C43F0006373607E
S31500005C00736843F04003736073686FF34103736016
S31500005C103323C6F8E431736843F004037360D6F89F
S31500005C20DC3143F00043C6F8DC310027629AFBB250
S31500005C309A4200F207817F4B689300227E4B69935C
S31500005C4067A9104602F064FE10B1452840F07B813A
S31500005C50679968AA002002F0C9FE003818BF012023
S31500005C60404271E078AB03EB88082046D8F8143040
S31500005C70BBFBF3FB08F048FF80465846894608F010
S31500005C8033FF02460B464046494609F019FA0028FA
S31500005C9061D12F806C80224639466448FFF7F0FABE
S31500005CA001216248FFF742FD604B5A6842F00062EC
S31500005CB05A605A686FF386125A60721E012A5A6831
S31500005CC04FF0000194BF42F0020266F341025A60AF
S31500005CD0C3F8E4115A6842F004025A60D3F8DC2192
S31500005CE061F3DF72C3F8DC219AF8002002F5F07246
S31500005CF06A4492F8540092F8641052785AB1D3F874
S31500005D00084262F34924C3F80842D3F8084261F313
S31500005D104814C3F80842454FD7F8083260F3040325
S31500005D20C7F80832FEF74CFF9AF800403246214683
S31500005D303846FFF7BFFAA0346A886B68B3FBF2F304
S31500005D403B4A42F8243000206BB0BDEC048BBDE822
S31500005D50F04F04B070471FFA8BF22F806A809BE7E2
S31500005D6008F59873DFF8C8B06393002E50D1659B91
S31500005D70649A5B68B2FBF3F39BB2639A012B98BFFC
S31500005D8002232BF81230629B012B08D04A8810465A
S31500005D90FEF796FD18B91046FEF79BFD488078ABD6
S31500005DA003EB4803B0B2B3F8F430012B01BF08F59A
S31500005DB098723BF812309B082BF81230639B3BF825
S31500005DC0133007EE903AF8EE677A002288EE277ACB
S31500005DD0DFED1A7A01321FFA82FC844577EE877A64
S31500005DE0F8D9F4EEC87AF1EE10FA0CDD0022013291
S31500005DF01FFA82FC5B0084459BB2F8D90C4808F573
S31500005E00987220F812300136023109F10409E1E6F0
S31500005E10D9E90032B3FBF2F20B8813FB02F34B8095
S31500005E20B1E700BFC0FC00003EFF000000380424BC
S31500005E30E0FC000085572008955720080000000068
S31500005E40BCFC00009AF80010639101F5F0736B44F6
S31500005E50304693F8548093F8649093F801B0CDF8E7
S31500005E6000B04B464246FFF798F9639901F59073E7
S31500005E7034F8130001F5987334F81320012A08D07A
S31500005E808B0003F1105303F58723A3F83801C3F8F9
S31500005E9078213046FFF7D4F95A4649464046FEF780
S31500005EA08FFE9AF8008030464146FFF761F978ABDD
S31500005EB003EB480378AAB3F8F43002EB880001221A
S31500005EC0CDE90222CDE900334146D0F85431D0F86D
S31500005ED014213046FFF742F89AF8008030464146D2
S31500005EE0FFF732F9414600223046FFF7E3F908F1A1
S31500005EF0A00269886B68B3FBF1F308F59871013766
S31500005F0034F81110B3FBF1F344F8223078AA02EB0F
S31500005F10480208F5C473B2F8F42024F8132078AACE
S31500005F2002EB880208F1B403D2F8B42044F8232027
S31500005F3008F5F07204EB08030DEB020898F801204F
S31500005F4083F8C02272E64FF0FF30FDE6D0F8E0316C
S31500005F5043F00103C0F8E031002070472DE9F3411A
S31500005F60374B9A6A0192019A16020DD5426A1502BA
S31500005F70C2F3C05008D45A6A42F400025A62314B46
S31500005F809B690421984718E0019BDC0709D52C4A38
S31500005F90136A43F0010313622A4B05219B69002013
S31500005FA0F0E7019C14F080740BD02548012100F025
S31500005FB095F8254B02201B689847002002B0BDE8E3
S31500005FC0F0811F4B5A68500603D4D3F8DC31002BFE
S31500005FD024DA1E4D1A4E1B4F019BE21DD340D907F2
S31500005FE017D521463046FFF791F92B785FFA84F8EA
S31500005FF0B3FA83F2520941463046FFF719F8BB69F6
S3150000600013B10021404698472B78B3FA83F35B0916
S315000060102B700134102C05F10105DDD1084B5A68AF
S315000060209207CAD4D3F8DC11C90FC6D15A6842F018
S3150000603004025A600198034BC0B29B69A2E700BFF5
S3150000604000380424C0FC000014000100A0FC00007D
S315000060500148FFF783BF00BF00380424030548BF8B
S3150000606020F40060174B58BF40F40060D1B11A8A83
S3150000607093ED057A821A07EE902AF8EEE77A67EE34
S31500006080877AFDEEE77A17EE903A18B2B0F5805FA0
S3150000609011DA002812DDB0F5006F10DBA0F5006004
S315000060A000B270471A8993ED037A821A07EE902A96
S315000060B0F8EEE77AE3E740F6FF70EFE7002000F539
S315000060C00060EDE7C0FC0000406921B11146C0F355
S315000060D00B00FFF7C3BFC0F30B007047436A0129EB
S315000060E01DBF43F002034362436A43F0807318BF47
S315000060F043F004034362002070472DE9F04F92F805
S3150000610006C092F802A05378D5781679577992F896
S3150000611007E092F8088092F8099092F80AB0D47ACB
S31500006120127802B35B0643EA4B7343EA8A5343EAA7
S31500006130495343EA085343EA4E4343EA0C4343EACE
S3150000614047330901026843EAC62301F1105143EAC5
S31500006150852301F5872142F0004243EA4423026089
S31500006160CB63BDE8F08F02686CF3C7120260026869
S315000061706AF34F320260026863F3134202600368F7
S3150000618065F341030360036866F3830303600368F2
S3150000619067F30613036003686EF30A23036003685C
S315000061A068F3CB230360036869F30C330360036869
S315000061B06BF314530360036864F300030360D0E7D2
S315000061C010B4034C2468646CA4465DF8044B604725
S315000061D000013000024B1B68D3F8B830184700BFE7
S315000061E000013000024B1B68D3F8C030184700BFCF
S315000061F000013000024B1B68D3F8C830184700BFB7
S3150000620000013000024B1B68D3F8E830184700BF86
S3150000621000013000014BDB685B6918470001300064
S31500006220F0B5436885B00024B3F1884F0194054664
S31500006230029403940BD0774A934208D0764A93424D
S3150000624000F0D180754C181B4442444164009A68A2
S315000062500192019A02F00602062A4FEA84742CD1B2
S315000062605B690293029B990710D56A6913686BB143
S3150000627001215171202098476B6993F82820032A41
S3150000628004D193F826300BB144F01004029B5A0750
S3150000629007D56A69136823B1012111724FF40070A2
S315000062A09847029B1B0740F1A0806A69136823B1D7
S315000062B00121D1714FF480709847019B9E071DD52F
S315000062C06B691E6910201A6A6968964209D09F692F
S315000062D00138BF5C0F6002F101021A62F3D19642E7
S315000062E00CD14A6822F002024A60002283F8262076
S315000062F01B681BB144F0010420469847019B5807D0
S3150000630038D56B691A68002A34D06A685169C9079A
S3150000631025D511685A69DB69D1546B69DA69D96880
S3150000632001328A42DA611AD169684A6822F00102AA
S315000063304A6093F82820023A0021012A197164D88C
S3150000634093F8272083F82710022A5ED0032A59D013
S31500006350012A01D144F001041B68204698476B6965
S315000063601A683AB1D969DB68994203D044F040040F
S3150000637020469047019B1A074AD16B689B69039395
S315000063806B78DB0608D5039BDF0705D56B6944F4FC
S3150000639080641B68204698476B785E0608D5039B89
S315000063A0980705D56B6944F400641B682046984736
S315000063B0AB78D90708D5039B5A0705D56B6944F412
S315000063C000541B682046984795F90130002B1FDAC8
S315000063D0039B1B071CD56B691B6844F4805005B0F2
S315000063E0BDE8F0401847012431E7029BDF067FF540
S315000063F064AF6A691368002B3FF45FAF01219171A6
S31500006400802059E744F00404A6E744F00204A3E719
S3150000641005B0F0BD00010044000002450018042448
S3150000642030B504460AB3B0F5E10F1ED8536880258F
S31500006430DD608900B1FBF0F1D3F8C0006FF3050011
S31500006440C3F8C000002018605860D860DD60C1F352
S3150000645087151D60C1F3873501F03F015D60C3F804
S31500006460C010D8605369DC6230BD40F20160FBE7C2
